:0400000046EF3FF098
:107E8C000A6A0001C4EF3FF0000E026E73EC3FF083
:107E9C00026E02501200026EACA2FED7025060ECD1
:107EAC003FF01200000E026E9B0E016E3C0E94EC25
:107EBC003FF01200016EACAC03D0AC900AB2AC80B7
:107ECC0001C0ADFF120092680E0EC16E920EC06E14
:107EDC00000EC46E000EC36E1200F20E0A16ABAC8E
:107EEC0003D00A90ABB00A80ABB40A84ABB20A865A
:107EFC00AECF01F00150120008D0100E036E940E9C
:107F0C00E82EFED7032EFCD700D00106D8A002061F
:107F1C000128F3E10228D8B41200EFD7036E000E4B
:107F2C00AC6E000EAB6E03B0AC8803A202D0AC8C6E
:107F3C00AB8C03B4AC8E03A602D0AB8801D0AB8A59
:107F4C0003B8AC849E9803BAAB8603AC02D09D8A6E
:107F5C0001D09D9A9E9A03AE02D09D8801D09D9827
:107F6C0001C0AFFF0250B06EAC8AAB8E949C948E65
:107F7C00ACA81200ACBE1200948C120069EC3FF05D
:107F8C0058EC3FF0240E066E210E076E400E086E64
:107F9C00770E046E700E056E4AEC3FF0096E4C0EB7
:107FAC000918D8A40ED0065051EC3FF0075051ECF4
:107FBC003FF0085051EC3FF0045051EC3FF0300EC4
:107FCC00096E4C0E0918D8A40ED0065051EC3FF097
:107FDC00075051EC3FF0085051EC3FF0055051EC7C
:107FEC003FF0300E096E000E026E640E016E82ECD4
:047FFC003FF0D2D7A9
:020000040020DA
:08000000FFFFFFFFFFFFFFFF00
:020000040030CA
:0E000000040E1F1EFF8385FF0FC00FE00F4090
:00000001FF
